{"abi":[{"type":"constructor","inputs":[{"name":"entryPoint_","type":"address","internalType":"address"},{"name":"multicallForwarder","type":"address","internalType":"address"},{"name":"erc6551Registry","type":"address","internalType":"address"},{"name":"_guardian","type":"address","internalType":"address"}],"stateMutability":"nonpayable"},{"type":"fallback","stateMutability":"payable"},{"type":"receive","stateMutability":"payable"},{"type":"function","name":"entryPoint","inputs":[],"outputs":[{"name":"","type":"address","internalType":"contract IEntryPoint"}],"stateMutability":"view"},{"type":"function","name":"erc6551Registry","inputs":[],"outputs":[{"name":"","type":"address","internalType":"address"}],"stateMutability":"view"},{"type":"function","name":"execute","inputs":[{"name":"to","type":"address","internalType":"address"},{"name":"value","type":"uint256","internalType":"uint256"},{"name":"data","type":"bytes","internalType":"bytes"},{"name":"operation","type":"uint8","internalType":"uint8"}],"outputs":[{"name":"","type":"bytes","internalType":"bytes"}],"stateMutability":"payable"},{"type":"function","name":"executeBatch","inputs":[{"name":"operations","type":"tuple[]","internalType":"struct BatchExecutor.Operation[]","components":[{"name":"to","type":"address","internalType":"address"},{"name":"value","type":"uint256","internalType":"uint256"},{"name":"data","type":"bytes","internalType":"bytes"},{"name":"operation","type":"uint8","internalType":"uint8"}]}],"outputs":[{"name":"","type":"bytes[]","internalType":"bytes[]"}],"stateMutability":"payable"},{"type":"function","name":"executeNested","inputs":[{"name":"to","type":"address","internalType":"address"},{"name":"value","type":"uint256","internalType":"uint256"},{"name":"data","type":"bytes","internalType":"bytes"},{"name":"operation","type":"uint8","internalType":"uint8"},{"name":"proof","type":"tuple[]","internalType":"struct NestedAccountExecutor.ERC6551AccountInfo[]","components":[{"name":"salt","type":"bytes32","internalType":"bytes32"},{"name":"tokenContract","type":"address","internalType":"address"},{"name":"tokenId","type":"uint256","internalType":"uint256"}]}],"outputs":[{"name":"","type":"bytes","internalType":"bytes"}],"stateMutability":"payable"},{"type":"function","name":"extcall","inputs":[{"name":"to","type":"address","internalType":"address"},{"name":"value","type":"uint256","internalType":"uint256"},{"name":"data","type":"bytes","internalType":"bytes"}],"outputs":[{"name":"result","type":"bytes","internalType":"bytes"}],"stateMutability":"nonpayable"},{"type":"function","name":"extcreate","inputs":[{"name":"value","type":"uint256","internalType":"uint256"},{"name":"bytecode","type":"bytes","internalType":"bytes"}],"outputs":[{"name":"","type":"address","internalType":"address"}],"stateMutability":"nonpayable"},{"type":"function","name":"extcreate2","inputs":[{"name":"value","type":"uint256","internalType":"uint256"},{"name":"salt","type":"bytes32","internalType":"bytes32"},{"name":"bytecode","type":"bytes","internalType":"bytes"}],"outputs":[{"name":"","type":"address","internalType":"address"}],"stateMutability":"nonpayable"},{"type":"function","name":"extsload","inputs":[{"name":"slot","type":"bytes32","internalType":"bytes32"}],"outputs":[{"name":"value","type":"bytes32","internalType":"bytes32"}],"stateMutability":"view"},{"type":"function","name":"getNonce","inputs":[],"outputs":[{"name":"","type":"uint256","internalType":"uint256"}],"stateMutability":"view"},{"type":"function","name":"isLocked","inputs":[],"outputs":[{"name":"","type":"bool","internalType":"bool"}],"stateMutability":"view"},{"type":"function","name":"isTrustedForwarder","inputs":[{"name":"forwarder","type":"address","internalType":"address"}],"outputs":[{"name":"","type":"bool","internalType":"bool"}],"stateMutability":"view"},{"type":"function","name":"isValidSignature","inputs":[{"name":"hash","type":"bytes32","internalType":"bytes32"},{"name":"signature","type":"bytes","internalType":"bytes"}],"outputs":[{"name":"magicValue","type":"bytes4","internalType":"bytes4"}],"stateMutability":"view"},{"type":"function","name":"isValidSigner","inputs":[{"name":"signer","type":"address","internalType":"address"},{"name":"data","type":"bytes","internalType":"bytes"}],"outputs":[{"name":"magicValue","type":"bytes4","internalType":"bytes4"}],"stateMutability":"view"},{"type":"function","name":"lock","inputs":[{"name":"_lockedUntil","type":"uint256","internalType":"uint256"}],"outputs":[],"stateMutability":"nonpayable"},{"type":"function","name":"lockedUntil","inputs":[],"outputs":[{"name":"","type":"uint256","internalType":"uint256"}],"stateMutability":"view"},{"type":"function","name":"onERC1155BatchReceived","inputs":[{"name":"","type":"address","internalType":"address"},{"name":"","type":"address","internalType":"address"},{"name":"","type":"uint256[]","internalType":"uint256[]"},{"name":"","type":"uint256[]","internalType":"uint256[]"},{"name":"","type":"bytes","internalType":"bytes"}],"outputs":[{"name":"","type":"bytes4","internalType":"bytes4"}],"stateMutability":"nonpayable"},{"type":"function","name":"onERC1155Received","inputs":[{"name":"","type":"address","internalType":"address"},{"name":"","type":"address","internalType":"address"},{"name":"","type":"uint256","internalType":"uint256"},{"name":"","type":"uint256","internalType":"uint256"},{"name":"","type":"bytes","internalType":"bytes"}],"outputs":[{"name":"","type":"bytes4","internalType":"bytes4"}],"stateMutability":"nonpayable"},{"type":"function","name":"onERC721Received","inputs":[{"name":"","type":"address","internalType":"address"},{"name":"","type":"address","internalType":"address"},{"name":"tokenId","type":"uint256","internalType":"uint256"},{"name":"","type":"bytes","internalType":"bytes"}],"outputs":[{"name":"","type":"bytes4","internalType":"bytes4"}],"stateMutability":"nonpayable"},{"type":"function","name":"overrides","inputs":[{"name":"","type":"address","internalType":"address"},{"name":"","type":"bytes4","internalType":"bytes4"}],"outputs":[{"name":"","type":"address","internalType":"address"}],"stateMutability":"view"},{"type":"function","name":"owner","inputs":[],"outputs":[{"name":"","type":"address","internalType":"address"}],"stateMutability":"view"},{"type":"function","name":"permissions","inputs":[{"name":"","type":"address","internalType":"address"},{"name":"","type":"address","internalType":"address"}],"outputs":[{"name":"","type":"bool","internalType":"bool"}],"stateMutability":"view"},{"type":"function","name":"setOverrides","inputs":[{"name":"selectors","type":"bytes4[]","internalType":"bytes4[]"},{"name":"implementations","type":"address[]","internalType":"address[]"}],"outputs":[],"stateMutability":"nonpayable"},{"type":"function","name":"setPermissions","inputs":[{"name":"callers","type":"address[]","internalType":"address[]"},{"name":"_permissions","type":"bool[]","internalType":"bool[]"}],"outputs":[],"stateMutability":"nonpayable"},{"type":"function","name":"state","inputs":[],"outputs":[{"name":"","type":"uint256","internalType":"uint256"}],"stateMutability":"view"},{"type":"function","name":"supportsInterface","inputs":[{"name":"interfaceId","type":"bytes4","internalType":"bytes4"}],"outputs":[{"name":"","type":"bool","internalType":"bool"}],"stateMutability":"view"},{"type":"function","name":"token","inputs":[],"outputs":[{"name":"chainId","type":"uint256","internalType":"uint256"},{"name":"tokenContract","type":"address","internalType":"address"},{"name":"tokenId","type":"uint256","internalType":"uint256"}],"stateMutability":"view"},{"type":"function","name":"trustedForwarder","inputs":[],"outputs":[{"name":"","type":"address","internalType":"address"}],"stateMutability":"view"},{"type":"function","name":"validateUserOp","inputs":[{"name":"userOp","type":"tuple","internalType":"struct PackedUserOperation","components":[{"name":"sender","type":"address","internalType":"address"},{"name":"nonce","type":"uint256","internalType":"uint256"},{"name":"initCode","type":"bytes","internalType":"bytes"},{"name":"callData","type":"bytes","internalType":"bytes"},{"name":"accountGasLimits","type":"bytes32","internalType":"bytes32"},{"name":"preVerificationGas","type":"uint256","internalType":"uint256"},{"name":"gasFees","type":"bytes32","internalType":"bytes32"},{"name":"paymasterAndData","type":"bytes","internalType":"bytes"},{"name":"signature","type":"bytes","internalType":"bytes"}]},{"name":"userOpHash","type":"bytes32","internalType":"bytes32"},{"name":"missingAccountFunds","type":"uint256","internalType":"uint256"}],"outputs":[{"name":"validationData","type":"uint256","internalType":"uint256"}],"stateMutability":"nonpayable"},{"type":"event","name":"LockUpdated","inputs":[{"name":"lockedUntil","type":"uint256","indexed":false,"internalType":"uint256"}],"anonymous":false},{"type":"event","name":"OverrideUpdated","inputs":[{"name":"owner","type":"address","indexed":false,"internalType":"address"},{"name":"selector","type":"bytes4","indexed":false,"internalType":"bytes4"},{"name":"implementation","type":"address","indexed":false,"internalType":"address"}],"anonymous":false},{"type":"event","name":"PermissionUpdated","inputs":[{"name":"owner","type":"address","indexed":false,"internalType":"address"},{"name":"caller","type":"address","indexed":false,"internalType":"address"},{"name":"hasPermission","type":"bool","indexed":false,"internalType":"bool"}],"anonymous":false},{"type":"error","name":"AccountLocked","inputs":[]},{"type":"error","name":"ContractCreationFailed","inputs":[]},{"type":"error","name":"Create2EmptyBytecode","inputs":[]},{"type":"error","name":"Create2FailedDeployment","inputs":[]},{"type":"error","name":"Create2InsufficientBalance","inputs":[{"name":"balance","type":"uint256","internalType":"uint256"},{"name":"needed","type":"uint256","internalType":"uint256"}]},{"type":"error","name":"ExceedsMaxLockTime","inputs":[]},{"type":"error","name":"InvalidAccountProof","inputs":[]},{"type":"error","name":"InvalidERC6551Registry","inputs":[]},{"type":"error","name":"InvalidEntryPoint","inputs":[]},{"type":"error","name":"InvalidInput","inputs":[]},{"type":"error","name":"InvalidMulticallForwarder","inputs":[]},{"type":"error","name":"InvalidOperation","inputs":[]},{"type":"error","name":"NotAuthorized","inputs":[]},{"type":"error","name":"OwnershipCycle","inputs":[]}],"bytecode":{"object":"0x6101206040523060a0523480156200001657600080fd5b506040516200339a3803806200339a8339810160408190526200003991620000fd565b82828181876001600160a01b0381166200006657604051632039d3c960e01b815260040160405180910390fd5b6001600160a01b03908116608052811662000093576040516246a29560e81b815260040160405180910390fd5b6001600160a01b0390811660c05290811660e0528216620000c75760405163754c753360e11b815260040160405180910390fd5b50506001600160a01b031661010052506200015a915050565b80516001600160a01b0381168114620000f857600080fd5b919050565b600080600080608085870312156200011457600080fd5b6200011f85620000e0565b93506200012f60208601620000e0565b92506200013f60408601620000e0565b91506200014f60608601620000e0565b905092959194509250565b60805160a05160c05160e051610100516131ca620001d060003960006118db0152600081816104610152610ef701526000818161024401528181610a4b0152611f52015260008181610a6c0152611f310152600081816104c0015281816111df01528181611692015261182401526131ca6000f3fe6080604052600436106101c65760003560e01c8063572b6c05116100f7578063bc197c8111610095578063dd46706411610064578063dd46706414610564578063ee9c605414610584578063f23a6e61146105c5578063fc0c546a146105e5576101d5565b8063bc197c8114610504578063c19d93fb14610524578063ce0617ec14610539578063d087d2881461054f576101d5565b80638da5cb5b116100d15780638da5cb5b14610485578063a4e2d6341461049a578063b0d691fe146104b1578063b709467c146104e4576101d5565b8063572b6c05146104125780637a8f7356146104325780637da0a87714610452576101d5565b80631f9838b51161016457806343629a731161013e57806343629a731461039f57806345a24e3e146103bf57806351945447146103df578063523e3260146103f2576101d5565b80631f9838b5146103245780631fb1ecf01461035f57806334715fb11461037f576101d5565b8063150b7a02116101a0578063150b7a021461027e5780631626ba7e146102b757806319822f7c146102d75780631e2eaeaf14610305576101d5565b806301ffc9a7146101dd578063039721b114610212578063056d5afe14610232576101d5565b366101d5576101d361061d565b005b6101d361061d565b3480156101e957600080fd5b506101fd6101f83660046125bf565b610726565b60405190151581526020015b60405180910390f35b34801561021e57600080fd5b506101d361022d366004612625565b610754565b34801561023e57600080fd5b506102667f000000000000000000000000000000000000000000000000000000000000000081565b6040516001600160a01b039091168152602001610209565b34801561028a57600080fd5b5061029e61029936600461275a565b610938565b6040516001600160e01b03199091168152602001610209565b3480156102c357600080fd5b5061029e6102d2366004612806565b6109a9565b3480156102e357600080fd5b506102f76102f2366004612851565b6109d4565b604051908152602001610209565b34801561031157600080fd5b506102f76103203660046128a4565b5490565b34801561033057600080fd5b506101fd61033f3660046128bd565b600260209081526000928352604080842090915290825290205460ff1681565b61037261036d366004612907565b6109f3565b6040516102099190612a26565b34801561038b57600080fd5b5061026661039a366004612a39565b610c5a565b6103b26103ad366004612a7f565b610c79565b6040516102099190612ac0565b3480156103cb57600080fd5b506102666103da366004612806565b610e05565b6103726103ed366004612b24565b610e57565b3480156103fe57600080fd5b5061029e61040d366004612b94565b610ea0565b34801561041e57600080fd5b506101fd61042d366004612bcf565b610ef5565b34801561043e57600080fd5b506101d361044d366004612625565b610f27565b34801561045e57600080fd5b507f0000000000000000000000000000000000000000000000000000000000000000610266565b34801561049157600080fd5b5061026661114d565b3480156104a657600080fd5b5060005442106101fd565b3480156104bd57600080fd5b507f0000000000000000000000000000000000000000000000000000000000000000610266565b3480156104f057600080fd5b506103726104ff366004612bec565b611174565b34801561051057600080fd5b5061029e61051f366004612ca3565b6111bf565b34801561053057600080fd5b506003546102f7565b34801561054557600080fd5b506102f760005481565b34801561055b57600080fd5b506102f76111db565b34801561057057600080fd5b506101d361057f3660046128a4565b611274565b34801561059057600080fd5b5061026661059f366004612d50565b60016020908152600092835260408084209091529082529020546001600160a01b031681565b3480156105d157600080fd5b5061029e6105e0366004612d85565b61135b565b3480156105f157600080fd5b506105fa611377565b604080519384526001600160a01b03909216602084015290820152606001610209565b600080600061062a61138f565b925092509250600061063d84848461139d565b6001600160a01b0380821660009081526001602090815260408083206001600160e01b0319843516845290915290205491925016801561071f576000610682306113b9565b9050600080826001600160a01b031684600036336040516020016106a99493929190612ded565b60408051601f19818403018152908290526106c391612e2b565b6000604051808303816000865af19150503d8060008114610700576040519150601f19603f3d011682016040523d82523d6000602084013e610705565b606091505b50915091508161071757805160208201fd5b805160208201f35b5050505050565b600080610732836113f4565b905080156107435750600192915050565b61074b611419565b50600092915050565b600080600061076161138f565b925092509250600061077484848461139d565b90506001600160a01b03811661079d5760405163ea8e4eb560e01b815260040160405180910390fd5b336001600160a01b038216146107c65760405163ea8e4eb560e01b815260040160405180910390fd5b6107ce6114cc565b868581146107ef5760405163b4fa3fb360e01b815260040160405180910390fd5b60005b8181101561092c5787878281811061080c5761080c612e47565b90506020020160208101906108219190612e6b565b6001600160a01b0384166000908152600260205260408120908c8c8581811061084c5761084c612e47565b90506020020160208101906108619190612bcf565b6001600160a01b031681526020810191909152604001600020805460ff19169115159190911790557f394777a58092892d136a90c4bb7e4350c72ac50fba6a0208128677f36527dcf5838b8b848181106108bd576108bd612e47565b90506020020160208101906108d29190612bcf565b8a8a858181106108e4576108e4612e47565b90506020020160208101906108f99190612e6b565b604080516001600160a01b03948516815293909216602084015215159082015260600160405180910390a16001016107f2565b50505050505050505050565b60008060008061094661138f565b91945092509050336001600160a01b03831614801561096457508086145b801561096f57504683145b1561098d5760405163b79e3f3f60e01b815260040160405180910390fd5b61099561061d565b50630a85bd0160e11b979650505050505050565b60006109b68484846114f9565b156109c95750630b135d3f60e11b6109cd565b5060005b9392505050565b60006109de611687565b6109e88484611704565b90506109cd8261173f565b6060816000610a0061178c565b90503660005b83811015610c0f57868682818110610a2057610a20612e47565b90506060020191506000826020016020810190610a3d9190612bcf565b905060408301356000610a957f00000000000000000000000000000000000000000000000000000000000000007f00000000000000000000000000000000000000000000000000000000000000008735468787611796565b9050826001600160a01b03163b600003610ac257604051631052dd2560e21b815260040160405180910390fd5b6001600160a01b0381163b15610b5257806001600160a01b031663a4e2d6346040518163ffffffff1660e01b8152600401602060405180830381865afa158015610b10573d6000803e3d6000fd5b505050506040513d601f19601f82011682018060405250810190610b349190612e88565b15610b5257604051636315bfbb60e01b815260040160405180910390fd5b6040516331a9108f60e11b8152600481018390526001600160a01b03841690636352211e90602401602060405180830381865afa925050508015610bb3575060408051601f3d908101601f19168201909252610bb091810190612ea5565b60015b610bd057604051631052dd2560e21b815260040160405180910390fd5b866001600160a01b0316816001600160a01b031614610c0257604051631052dd2560e21b815260040160405180910390fd5b5094505050600101610a06565b50610c1982611820565b610c365760405163ea8e4eb560e01b815260040160405180910390fd5b610c3e6114cc565b610c4b8b8b8b8b8b611a08565b9b9a5050505050505050505050565b6000610c64611be4565b610c7085858585611c1e565b95945050505050565b6060610c8b610c8661178c565b611820565b610ca85760405163ea8e4eb560e01b815260040160405180910390fd5b610cb06114cc565b816000816001600160401b03811115610ccb57610ccb6126a5565b604051908082528060200260200182016040528015610cfe57816020015b6060815260200190600190039081610ce95790505b50905060005b82811015610dfa57610dd5868683818110610d2157610d21612e47565b9050602002810190610d339190612ec2565b610d41906020810190612bcf565b878784818110610d5357610d53612e47565b9050602002810190610d659190612ec2565b60200135888885818110610d7b57610d7b612e47565b9050602002810190610d8d9190612ec2565b610d9b906040810190612ed8565b8a8a87818110610dad57610dad612e47565b9050602002810190610dbf9190612ec2565b610dd0906080810190606001612f1e565b611a08565b828281518110610de757610de7612e47565b6020908102919091010152600101610d04565b509150505b92915050565b6000610e0f611be4565b610e4f8484848080601f016020809104026020016040519081016040528093929190818152602001838380828437600092019190915250611c9792505050565b949350505050565b6060610e64610c8661178c565b610e815760405163ea8e4eb560e01b815260040160405180910390fd5b610e896114cc565b610e968686868686611a08565b9695505050505050565b6000610ee28484848080601f016020809104026020016040519081016040528093929190818152602001838380828437600092019190915250611cd492505050565b156109c95750630291f19360e51b6109cd565b7f00000000000000000000000000000000000000000000000000000000000000006001600160a01b0390811691161490565b6000806000610f3461138f565b9250925092506000610f4784848461139d565b90506001600160a01b038116610f705760405163ea8e4eb560e01b815260040160405180910390fd5b336001600160a01b03821614610f995760405163ea8e4eb560e01b815260040160405180910390fd5b610fa16114cc565b6000610fac306113b9565b9050806001600160a01b03163b600003610fc957610fc930611d82565b87868114610fea5760405163b4fa3fb360e01b815260040160405180910390fd5b60005b818110156111405788888281811061100757611007612e47565b905060200201602081019061101c9190612bcf565b6001600160a01b0385166000908152600160205260408120908d8d8581811061104757611047612e47565b905060200201602081019061105c91906125bf565b6001600160e01b0319168152602081019190915260400160002080546001600160a01b0319166001600160a01b03929092169190911790557f2c722487e90aca38ec1b074c3403210bd2bfb769b4da7f12f7bf0b9e37517c18848c8c848181106110c8576110c8612e47565b90506020020160208101906110dd91906125bf565b8b8b858181106110ef576110ef612e47565b90506020020160208101906111049190612bcf565b604080516001600160a01b0394851681526001600160e01b031993909316602084015292168183015290519081900360600190a1600101610fed565b5050505050505050505050565b60008060008061115b61138f565b92509250925061116c838383611dba565b935050505090565b606061117e611be4565b610c70858585858080601f016020809104026020016040519081016040528093929190818152602001838380828437600092019190915250611e5992505050565b60006111c961061d565b5063bc197c8160e01b95945050505050565b60007f0000000000000000000000000000000000000000000000000000000000000000604051631aab3f0d60e11b8152306004820152600060248201526001600160a01b0391909116906335567e1a90604401602060405180830381865afa15801561124b573d6000803e3d6000fd5b505050506040513d601f19601f8201168201806040525081019061126f9190612f39565b905090565b600080600061128161138f565b925092509250600061129484848461139d565b90506001600160a01b0381166112bd5760405163ea8e4eb560e01b815260040160405180910390fd5b336001600160a01b038216146112e65760405163ea8e4eb560e01b815260040160405180910390fd5b6112f4426301e13380612f68565b851115611314576040516301814f7d60e31b815260040160405180910390fd5b61131c6114cc565b60008590556040518581527fa7b24c66dd3269a292a60b3facdbb8f3e7557d1e19e64d99e0d6ee7250be63ad9060200160405180910390a15050505050565b600061136561061d565b5063f23a6e6160e01b95945050505050565b600080600061138461138f565b925092509250909192565b600080600061138430611ed2565b6000806113ab858585611dba565b9050610c7081868686611f27565b6000610dff7f97f795a08410e77dc9dbbaba3915f17c601e45642518dd578bd440d8775bfee46113e884611ff6565b80519060200120612061565b60006001600160e01b03198216635194544760e01b1480610dff5750610dff8261206e565b600080600061142661138f565b925092509250600061143984848461139d565b6001600160a01b0380821660009081526001602090815260408083206001600160e01b0319843516845290915290205491925016801561071f57600080826001600160a01b0316600036604051611491929190612f7b565b600060405180830381855afa9150503d8060008114610700576040519150601f19603f3d011682016040523d82523d6000602084013e610705565b6000544210156114ef57604051636315bfbb60e01b815260040160405180910390fd5b6114f7612093565b565b6000808383604081811061150f5761150f612e47565b919091013560f81c9150600090508181036115f657611532602060008688612f8b565b61153b91612fb5565b60001c90506115598160405180602001604052806000815250611cd4565b15801561156f57506001600160a01b0381163014155b1561157f576000925050506109cd565b3660008686611592604060208385612f8b565b61159b91612fb5565b6115a6928290612f8b565b915091506115eb838984848080601f0160208091040260200160405190810160405280939291908181526020018383808284376000920191909152506120cd92505050565b9450505050506109cd565b60006116388787878080601f0160208091040260200160405190810160405280939291908181526020018383808284376000920191909152506121a892505050565b509092509050600081600381111561165257611652612fd3565b1461166357600093505050506109cd565b61167c8260405180602001604052806000815250611cd4565b979650505050505050565b336001600160a01b037f000000000000000000000000000000000000000000000000000000000000000016146114f75760405162461bcd60e51b815260206004820152601c60248201527f6163636f756e743a206e6f742066726f6d20456e747279506f696e740000000060448201526064015b60405180910390fd5b600061172661171384846121f5565b611721610100860186612ed8565b6114f9565b1561173357506000610dff565b50600192915050565b50565b801561173c57604051600090339060001990849084818181858888f193505050503d806000811461071f576040519150601f19603f3d011682016040523d82523d6000602084013e61071f565b600061126f612229565b6040805160b78082018490526001600160a01b038516609783015260778201869052605782018790526e5af43d82803e903d91602b57fd5bf3603783015260288201889052733d60ad80600a3d3981f3363d3d373d3d3d363d736014830152815260d78101909152805160209091012060009061181486828a61227b565b98975050505050505050565b60007f00000000000000000000000000000000000000000000000000000000000000006001600160a01b0316826001600160a01b03160361186357506001919050565b600080600061187061138f565b92509250925046831461195657306118a361188961178c565b731111000000000000000000000000000000001110190190565b6001600160a01b0316036118bc57506001949350505050565b6040516333932be560e11b81526001600160a01b0386811660048301527f0000000000000000000000000000000000000000000000000000000000000000169063672657ca90602401602060405180830381865afa158015611922573d6000803e3d6000fd5b505050506040513d601f19601f820116820180604052508101906119469190612e88565b1561195657506001949350505050565b6000611963848484611dba565b9050806001600160a01b0316866001600160a01b03160361198a5750600195945050505050565b600061199882868686611f27565b9050806001600160a01b0316876001600160a01b0316036119c0575060019695505050505050565b6001600160a01b038082166000908152600260209081526040808320938b168352929052205460ff16156119fb575060019695505050505050565b5060009695505050505050565b606060ff8216611a5a57611a53868686868080601f016020809104026020016040519081016040528093929190818152602001838380828437600092019190915250611e5992505050565b9050610c70565b60001960ff831601611ac4576000611a71306113b9565b9050806001600160a01b03163b600003611a8e57611a8e30611d82565b611abc8187898888604051602001611aa893929190612fe9565b604051602081830303815290604052611e59565b915050610c70565b60011960ff831601611b4957611b108585858080601f016020809104026020016040519081016040528093929190818152602001838380828437600092019190915250611c9792505050565b604051602001611b33919060609190911b6001600160601b031916815260140190565b6040516020818303038152906040529050610c70565b60021960ff831601611bcb576000611b646020828688612f8b565b611b6d91612fb5565b9050366000611b7f866020818a612f8b565b91509150611b8f88848484611c1e565b604051602001611bb2919060609190911b6001600160601b031916815260140190565b6040516020818303038152906040529350505050610c70565b604051631cc6a69960e11b815260040160405180910390fd5b611bed306113b9565b6001600160a01b0316336001600160a01b0316146114f75760405163ea8e4eb560e01b815260040160405180910390fd5b60008083838080601f01602080910402602001604051908101604052809392919081815260200183838082843760009201919091525050825192935087929150506020830188f591506001600160a01b038216611c8e5760405163a28c247360e01b815260040160405180910390fd5b50949350505050565b805160009082906020820185f091506001600160a01b038216611ccd5760405163a28c247360e01b815260040160405180910390fd5b5092915050565b600080600080611ce261138f565b9250925092506000611cf5848484611dba565b9050806001600160a01b0316876001600160a01b031603611d1d576001945050505050610dff565b6000611d2b82868686611f27565b9050806001600160a01b0316886001600160a01b031603611d5457600195505050505050610dff565b6001600160a01b038082166000908152600260209081526040808320938c168352929052205460ff16611814565b611db660007f97f795a08410e77dc9dbbaba3915f17c601e45642518dd578bd440d8775bfee4611db184611ff6565b6122a5565b5050565b6000468414611dcb575060006109cd565b826001600160a01b03163b600003611de5575060006109cd565b6040516331a9108f60e11b8152600481018390526001600160a01b03841690636352211e90602401602060405180830381865afa925050508015611e46575060408051601f3d908101601f19168201909252611e4391810190612ea5565b60015b611e52575060006109cd565b90506109cd565b60606000846001600160a01b03168484604051611e769190612e2b565b60006040518083038185875af1925050503d8060008114611eb3576040519150601f19603f3d011682016040523d82523d6000602084013e611eb8565b606091505b509250905080611eca57815160208301fd5b509392505050565b60408051606080825260808201909252600091829182918291906020820181803683370190505090506060604d60208301873c80806020019051810190611f199190613015565b935093509350509193909250565b6000845b611f76817f00000000000000000000000000000000000000000000000000000000000000007f0000000000000000000000000000000000000000000000000000000000000000612325565b15610c7057806001600160a01b031663fc0c546a6040518163ffffffff1660e01b8152600401606060405180830381865afa158015611fb9573d6000803e3d6000fd5b505050506040513d601f19601f82011682018060405250810190611fdd9190613015565b91965094509250611fef858585611dba565b9050611f2b565b60606040518060400160405280600e81526020016d604380600d600039806000f3fe7360901b815250826040518060600160405280602e8152602001613167602e913960405160200161204b9392919061304e565b6040516020818303038152906040529050919050565b60006109cd83833061227b565b60006001600160e01b03198216636faff5f160e01b1480610dff5750610dff826123d4565b60035461209e612409565b6040516020016120b093929190613095565b60408051601f198184030181529190528051602090910120600355565b6000806000856001600160a01b031685856040516024016120ef9291906130cb565b60408051601f198184030181529181526020820180516001600160e01b0316630b135d3f60e11b179052516121249190612e2b565b600060405180830381855afa9150503d806000811461215f576040519150601f19603f3d011682016040523d82523d6000602084013e612164565b606091505b509150915081801561217857506020815110155b8015610e9657508051630b135d3f60e11b9061219d9083016020908101908401612f39565b149695505050505050565b600080600083516041036121e25760208401516040850151606086015160001a6121d48882858561241c565b9550955095505050506121ee565b50508151600091506002905b9250925092565b7f19457468657265756d205369676e6564204d6573736167653a0a3332000000006000908152601c829052603c81206109cd565b600036601461223733610ef5565b80156122435750808210155b156122735760003661225583856130e4565b612260928290612f8b565b612269916130f7565b60601c9250505090565b339250505090565b6000604051836040820152846020820152828152600b8101905060ff815360559020949350505050565b6000834710156122d15760405163392efb2b60e21b8152476004820152602481018590526044016116fb565b81516000036122f357604051631328927760e21b815260040160405180910390fd5b8282516020840186f590506001600160a01b0381166109cd57604051633a0ba96160e11b815260040160405180910390fd5b6000836001600160a01b03163b60ad14612341575060006109cd565b600061234c856124eb565b9050806001600160a01b03163b60000361236a5760009150506109cd565b836001600160a01b0316816001600160a01b03161461238d5760009150506109cd565b60008060008061239c896124fd565b93509350935093506123b2878686868686611796565b6001600160a01b0316896001600160a01b031614955050505050509392505050565b60006001600160e01b03198216630271189760e51b1480610dff57506301ffc9a760e01b6001600160e01b0319831614610dff565b366000612414612555565b915091509091565b600080807f7fffffffffffffffffffffffffffffff5d576e7357a4501ddfe92f46681b20a084111561245757506000915060039050826124e1565b604080516000808252602082018084528a905260ff891692820192909252606081018790526080810186905260019060a0016020604051602081039080840390855afa1580156124ab573d6000803e3d6000fd5b5050604051601f1901519150506001600160a01b0381166124d7575060009250600191508290506124e1565b9250600091508190505b9450945094915050565b60006014600a600c843c505060005190565b60408051608080825260a0820190925260009182918291829182916020820181803683370190505090506080602d60208301883c808060200190518101906125459190613127565b9450945094509450509193509193565b36600081601461256433610ef5565b80156125705750808210155b1561259a576000803661258384866130e4565b9261259093929190612f8b565b9350935050509091565b600036612590565b80356001600160e01b0319811681146125ba57600080fd5b919050565b6000602082840312156125d157600080fd5b6109cd826125a2565b60008083601f8401126125ec57600080fd5b5081356001600160401b0381111561260357600080fd5b6020830191508360208260051b850101111561261e57600080fd5b9250929050565b6000806000806040858703121561263b57600080fd5b84356001600160401b038082111561265257600080fd5b61265e888389016125da565b9096509450602087013591508082111561267757600080fd5b50612684878288016125da565b95989497509550505050565b6001600160a01b038116811461173c57600080fd5b634e487b7160e01b600052604160045260246000fd5b604051601f8201601f191681016001600160401b03811182821017156126e3576126e36126a5565b604052919050565b600082601f8301126126fc57600080fd5b81356001600160401b03811115612715576127156126a5565b612728601f8201601f19166020016126bb565b81815284602083860101111561273d57600080fd5b816020850160208301376000918101602001919091529392505050565b6000806000806080858703121561277057600080fd5b843561277b81612690565b9350602085013561278b81612690565b92506040850135915060608501356001600160401b038111156127ad57600080fd5b6127b9878288016126eb565b91505092959194509250565b60008083601f8401126127d757600080fd5b5081356001600160401b038111156127ee57600080fd5b60208301915083602082850101111561261e57600080fd5b60008060006040848603121561281b57600080fd5b8335925060208401356001600160401b0381111561283857600080fd5b612844868287016127c5565b9497909650939450505050565b60008060006060848603121561286657600080fd5b83356001600160401b0381111561287c57600080fd5b8401610120818703121561288f57600080fd5b95602085013595506040909401359392505050565b6000602082840312156128b657600080fd5b5035919050565b600080604083850312156128d057600080fd5b82356128db81612690565b915060208301356128eb81612690565b809150509250929050565b803560ff811681146125ba57600080fd5b600080600080600080600060a0888a03121561292257600080fd5b873561292d81612690565b96506020880135955060408801356001600160401b038082111561295057600080fd5b61295c8b838c016127c5565b909750955085915061297060608b016128f6565b945060808a013591508082111561298657600080fd5b818a0191508a601f83011261299a57600080fd5b8135818111156129a957600080fd5b8b60206060830285010111156129be57600080fd5b60208301945080935050505092959891949750929550565b60005b838110156129f15781810151838201526020016129d9565b50506000910152565b60008151808452612a128160208601602086016129d6565b601f01601f19169290920160200192915050565b6020815260006109cd60208301846129fa565b60008060008060608587031215612a4f57600080fd5b843593506020850135925060408501356001600160401b03811115612a7357600080fd5b612684878288016127c5565b60008060208385031215612a9257600080fd5b82356001600160401b03811115612aa857600080fd5b612ab4858286016125da565b90969095509350505050565b600060208083016020845280855180835260408601915060408160051b87010192506020870160005b82811015612b1757603f19888603018452612b058583516129fa565b94509285019290850190600101612ae9565b5092979650505050505050565b600080600080600060808688031215612b3c57600080fd5b8535612b4781612690565b94506020860135935060408601356001600160401b03811115612b6957600080fd5b612b75888289016127c5565b9094509250612b889050606087016128f6565b90509295509295909350565b600080600060408486031215612ba957600080fd5b8335612bb481612690565b925060208401356001600160401b0381111561283857600080fd5b600060208284031215612be157600080fd5b81356109cd81612690565b60008060008060608587031215612c0257600080fd5b8435612c0d81612690565b93506020850135925060408501356001600160401b03811115612a7357600080fd5b600082601f830112612c4057600080fd5b813560206001600160401b03821115612c5b57612c5b6126a5565b8160051b612c6a8282016126bb565b9283528481018201928281019087851115612c8457600080fd5b83870192505b8483101561167c57823582529183019190830190612c8a565b600080600080600060a08688031215612cbb57600080fd5b8535612cc681612690565b94506020860135612cd681612690565b935060408601356001600160401b0380821115612cf257600080fd5b612cfe89838a01612c2f565b94506060880135915080821115612d1457600080fd5b612d2089838a01612c2f565b93506080880135915080821115612d3657600080fd5b50612d43888289016126eb565b9150509295509295909350565b60008060408385031215612d6357600080fd5b8235612d6e81612690565b9150612d7c602084016125a2565b90509250929050565b600080600080600060a08688031215612d9d57600080fd5b8535612da881612690565b94506020860135612db881612690565b9350604086013592506060860135915060808601356001600160401b03811115612de157600080fd5b612d43888289016126eb565b60006bffffffffffffffffffffffff19808760601b16835284866014850137848301818560601b166014820152602881019250505095945050505050565b60008251612e3d8184602087016129d6565b9190910192915050565b634e487b7160e01b600052603260045260246000fd5b801515811461173c57600080fd5b600060208284031215612e7d57600080fd5b81356109cd81612e5d565b600060208284031215612e9a57600080fd5b81516109cd81612e5d565b600060208284031215612eb757600080fd5b81516109cd81612690565b60008235607e19833603018112612e3d57600080fd5b6000808335601e19843603018112612eef57600080fd5b8301803591506001600160401b03821115612f0957600080fd5b60200191503681900382131561261e57600080fd5b600060208284031215612f3057600080fd5b6109cd826128f6565b600060208284031215612f4b57600080fd5b5051919050565b634e487b7160e01b600052601160045260246000fd5b80820180821115610dff57610dff612f52565b8183823760009101908152919050565b60008085851115612f9b57600080fd5b83861115612fa857600080fd5b5050820193919092039150565b80356020831015610dff57600019602084900360031b1b1692915050565b634e487b7160e01b600052602160045260246000fd5b6bffffffffffffffffffffffff198460601b168152818360148301376000910160140190815292915050565b60008060006060848603121561302a57600080fd5b83519250602084015161303c81612690565b80925050604084015190509250925092565b600084516130608184602089016129d6565b606085901b6001600160601b03191690830190815283516130888160148401602088016129d6565b0160140195945050505050565b83815260406020820152816040820152818360608301376000818301606090810191909152601f909201601f1916010192915050565b828152604060208201526000610e4f60408301846129fa565b81810381811115610dff57610dff612f52565b6001600160601b0319813581811691601485101561311f5780818660140360031b1b83161692505b505092915050565b6000806000806080858703121561313d57600080fd5b8451935060208501519250604085015161315681612690565b606095909501519396929550505056fe3314601d573d3dfd5b363d3d373d3d6014360360143d5160601c5af43d6000803e80603e573d6000fd5b3d6000f3a264697066735822122098a052059985559d4d39d93bddec77c2a6c72c798d4b9c08b7191b3c6162f85864736f6c63430008170033","linkReferences":{}},"methodIdentifiers":{"entryPoint()":"b0d691fe","erc6551Registry()":"056d5afe","execute(address,uint256,bytes,uint8)":"51945447","executeBatch((address,uint256,bytes,uint8)[])":"43629a73","executeNested(address,uint256,bytes,uint8,(bytes32,address,uint256)[])":"1fb1ecf0","extcall(address,uint256,bytes)":"b709467c","extcreate(uint256,bytes)":"45a24e3e","extcreate2(uint256,bytes32,bytes)":"34715fb1","extsload(bytes32)":"1e2eaeaf","getNonce()":"d087d288","isLocked()":"a4e2d634","isTrustedForwarder(address)":"572b6c05","isValidSignature(bytes32,bytes)":"1626ba7e","isValidSigner(address,bytes)":"523e3260","lock(uint256)":"dd467064","lockedUntil()":"ce0617ec","onERC1155BatchReceived(address,address,uint256[],uint256[],bytes)":"bc197c81","onERC1155Received(address,address,uint256,uint256,bytes)":"f23a6e61","onERC721Received(address,address,uint256,bytes)":"150b7a02","overrides(address,bytes4)":"ee9c6054","owner()":"8da5cb5b","permissions(address,address)":"1f9838b5","setOverrides(bytes4[],address[])":"7a8f7356","setPermissions(address[],bool[])":"039721b1","state()":"c19d93fb","supportsInterface(bytes4)":"01ffc9a7","token()":"fc0c546a","trustedForwarder()":"7da0a877","validateUserOp((address,uint256,bytes,bytes,bytes32,uint256,bytes32,bytes,bytes),bytes32,uint256)":"19822f7c"},"storageLayout":{"storage":[{"astId":65258,"contract":"src/accounts/AccountV3.sol:AccountV3","label":"lockedUntil","offset":0,"slot":"0","type":"t_uint256"},{"astId":65368,"contract":"src/accounts/AccountV3.sol:AccountV3","label":"overrides","offset":0,"slot":"1","type":"t_mapping(t_address,t_mapping(t_bytes4,t_address))"},{"astId":65644,"contract":"src/accounts/AccountV3.sol:AccountV3","label":"permissions","offset":0,"slot":"2","type":"t_mapping(t_address,t_mapping(t_address,t_bool))"},{"astId":65164,"contract":"src/accounts/AccountV3.sol:AccountV3","label":"_state","offset":0,"slot":"3","type":"t_uint256"}],"types":{"t_address":{"encoding":"inplace","label":"address","numberOfBytes":"20"},"t_bool":{"encoding":"inplace","label":"bool","numberOfBytes":"1"},"t_bytes4":{"encoding":"inplace","label":"bytes4","numberOfBytes":"4"},"t_mapping(t_address,t_bool)":{"encoding":"mapping","key":"t_address","label":"mapping(address => bool)","numberOfBytes":"32","value":"t_bool"},"t_mapping(t_address,t_mapping(t_address,t_bool))":{"encoding":"mapping","key":"t_address","label":"mapping(address => mapping(address => bool))","numberOfBytes":"32","value":"t_mapping(t_address,t_bool)"},"t_mapping(t_address,t_mapping(t_bytes4,t_address))":{"encoding":"mapping","key":"t_address","label":"mapping(address => mapping(bytes4 => address))","numberOfBytes":"32","value":"t_mapping(t_bytes4,t_address)"},"t_mapping(t_bytes4,t_address)":{"encoding":"mapping","key":"t_bytes4","label":"mapping(bytes4 => address)","numberOfBytes":"32","value":"t_address"},"t_uint256":{"encoding":"inplace","label":"uint256","numberOfBytes":"32"}}},"id":124}