{"abi":[{"type":"constructor","inputs":[{"name":"_guardian","type":"address","internalType":"address"},{"name":"_initialImplementation","type":"address","internalType":"address"}],"stateMutability":"nonpayable"},{"type":"fallback","stateMutability":"payable"},{"type":"receive","stateMutability":"payable"},{"type":"function","name":"initialize","inputs":[{"name":"implementation","type":"address","internalType":"address"}],"outputs":[],"stateMutability":"nonpayable"},{"type":"event","name":"Upgraded","inputs":[{"name":"implementation","type":"address","indexed":true,"internalType":"address"}],"anonymous":false},{"type":"error","name":"AddressEmptyCode","inputs":[{"name":"target","type":"address","internalType":"address"}]},{"type":"error","name":"AlreadyInitialized","inputs":[]},{"type":"error","name":"ERC1967InvalidImplementation","inputs":[{"name":"implementation","type":"address","internalType":"address"}]},{"type":"error","name":"ERC1967NonPayable","inputs":[]},{"type":"error","name":"FailedInnerCall","inputs":[]},{"type":"error","name":"InvalidImplementation","inputs":[]}],"bytecode":{"object":"0x60c060405234801561001057600080fd5b506040516105a13803806105a183398101604081905261002f9161009d565b6001600160a01b038216158061004c57506001600160a01b038116155b1561006a5760405163340aafcd60e11b815260040160405180910390fd5b6001600160a01b039182166080521660a0526100d0565b80516001600160a01b038116811461009857600080fd5b919050565b600080604083850312156100b057600080fd5b6100b983610081565b91506100c760208401610081565b90509250929050565b60805160a0516104ae6100f3600039600060670152600060bd01526104ae6000f3fe6080604052600436106100225760003560e01c8063c4d66de81461003357610029565b3661002957005b610031610053565b005b34801561003f57600080fd5b5061003161004e3660046103fe565b610065565b61006361005e6101ae565b6101e6565b565b7f00000000000000000000000000000000000000000000000000000000000000006001600160a01b0316816001600160a01b03161461014557604051631506fd4d60e01b81526001600160a01b0382811660048301527f00000000000000000000000000000000000000000000000000000000000000001690631506fd4d90602401602060405180830381865afa158015610104573d6000803e3d6000fd5b505050506040513d601f19601f820116820180604052508101906101289190610427565b6101455760405163340aafcd60e11b815260040160405180910390fd5b60006101787f360894a13ba1a3210667c828492db98dca3e2076cc3735a920a3ca505d382bbc546001600160a01b031690565b6001600160a01b03161461019e5760405162dc149f60e41b815260040160405180910390fd5b60606101aa828261020a565b5050565b60006101e17f360894a13ba1a3210667c828492db98dca3e2076cc3735a920a3ca505d382bbc546001600160a01b031690565b905090565b3660008037600080366000845af43d6000803e808015610205573d6000f35b3d6000fd5b61021382610265565b6040516001600160a01b038316907fbc7cd75a20ee27fd9adebab32041f755214dbc6bffa90cc0225b39da2e5c2d3b90600090a280511561025d5761025882826102e1565b505050565b6101aa610357565b806001600160a01b03163b6000036102a057604051634c9c8ce360e01b81526001600160a01b03821660048201526024015b60405180910390fd5b7f360894a13ba1a3210667c828492db98dca3e2076cc3735a920a3ca505d382bbc80546001600160a01b0319166001600160a01b0392909216919091179055565b6060600080846001600160a01b0316846040516102fe9190610449565b600060405180830381855af49150503d8060008114610339576040519150601f19603f3d011682016040523d82523d6000602084013e61033e565b606091505b509150915061034e858383610376565b95945050505050565b34156100635760405163b398979f60e01b815260040160405180910390fd5b60608261038b57610386826103d5565b6103ce565b81511580156103a257506001600160a01b0384163b155b156103cb57604051639996b31560e01b81526001600160a01b0385166004820152602401610297565b50805b9392505050565b8051156103e55780518082602001fd5b604051630a12f52160e11b815260040160405180910390fd5b60006020828403121561041057600080fd5b81356001600160a01b03811681146103ce57600080fd5b60006020828403121561043957600080fd5b815180151581146103ce57600080fd5b6000825160005b8181101561046a5760208186018101518583015201610450565b50600092019182525091905056fea2646970667358221220de2673d8fdf3b9e4512dbb1e13647d08b77fd14b3bf9e19e2fcfad8e6827df6564736f6c63430008170033","linkReferences":{}},"methodIdentifiers":{"initialize(address)":"c4d66de8"},"storageLayout":{"storage":[],"types":{}},"id":123}