{"abi":[{"type":"constructor","inputs":[{"name":"owner","type":"address","internalType":"address"}],"stateMutability":"nonpayable"},{"type":"function","name":"isTrustedExecutor","inputs":[{"name":"","type":"address","internalType":"address"}],"outputs":[{"name":"","type":"bool","internalType":"bool"}],"stateMutability":"view"},{"type":"function","name":"isTrustedImplementation","inputs":[{"name":"","type":"address","internalType":"address"}],"outputs":[{"name":"","type":"bool","internalType":"bool"}],"stateMutability":"view"},{"type":"function","name":"owner","inputs":[],"outputs":[{"name":"","type":"address","internalType":"address"}],"stateMutability":"view"},{"type":"function","name":"renounceOwnership","inputs":[],"outputs":[],"stateMutability":"nonpayable"},{"type":"function","name":"setTrustedExecutor","inputs":[{"name":"executor","type":"address","internalType":"address"},{"name":"trusted","type":"bool","internalType":"bool"}],"outputs":[],"stateMutability":"nonpayable"},{"type":"function","name":"setTrustedImplementation","inputs":[{"name":"implementation","type":"address","internalType":"address"},{"name":"trusted","type":"bool","internalType":"bool"}],"outputs":[],"stateMutability":"nonpayable"},{"type":"function","name":"transferOwnership","inputs":[{"name":"newOwner","type":"address","internalType":"address"}],"outputs":[],"stateMutability":"nonpayable"},{"type":"event","name":"OwnershipTransferred","inputs":[{"name":"previousOwner","type":"address","indexed":true,"internalType":"address"},{"name":"newOwner","type":"address","indexed":true,"internalType":"address"}],"anonymous":false},{"type":"event","name":"TrustedExecutorUpdated","inputs":[{"name":"executor","type":"address","indexed":false,"internalType":"address"},{"name":"trusted","type":"bool","indexed":false,"internalType":"bool"}],"anonymous":false},{"type":"event","name":"TrustedImplementationUpdated","inputs":[{"name":"implementation","type":"address","indexed":false,"internalType":"address"},{"name":"trusted","type":"bool","indexed":false,"internalType":"bool"}],"anonymous":false},{"type":"error","name":"OwnableInvalidOwner","inputs":[{"name":"owner","type":"address","internalType":"address"}]},{"type":"error","name":"OwnableUnauthorizedAccount","inputs":[{"name":"account","type":"address","internalType":"address"}]}],"bytecode":{"object":"0x608060405234801561001057600080fd5b5060405161048c38038061048c83398101604081905261002f916100be565b806001600160a01b03811661005e57604051631e4fbdf760e01b81526000600482015260240160405180910390fd5b6100678161006e565b50506100ee565b600080546001600160a01b038381166001600160a01b0319831681178455604051919092169283917f8be0079c531659141344cd1fd0a4f28419497f9722a3daafe3b4186f6b6457e09190a35050565b6000602082840312156100d057600080fd5b81516001600160a01b03811681146100e757600080fd5b9392505050565b61038f806100fd6000396000f3fe608060405234801561001057600080fd5b506004361061007d5760003560e01c8063715018a61161005b578063715018a6146100f25780638da5cb5b146100fa5780639472c8c914610115578063f2fde38b1461012857600080fd5b80631506fd4d14610082578063483c088e146100ba578063672657ca146100cf575b600080fd5b6100a56100903660046102fb565b60016020526000908152604090205460ff1681565b60405190151581526020015b60405180910390f35b6100cd6100c836600461031d565b61013b565b005b6100a56100dd3660046102fb565b60026020526000908152604090205460ff1681565b6100cd6101a7565b6000546040516001600160a01b0390911681526020016100b1565b6100cd61012336600461031d565b6101bb565b6100cd6101363660046102fb565b61021f565b610143610262565b6001600160a01b038216600081815260016020908152604091829020805460ff19168515159081179091558251938452908301527fd83c86b130b16028e237253bca8d22285f6de074a58017e569658653ed5bc36f91015b60405180910390a15050565b6101af610262565b6101b9600061028f565b565b6101c3610262565b6001600160a01b038216600081815260026020908152604091829020805460ff19168515159081179091558251938452908301527f373e917f5345a453dc2334dfe07f6cdd8576bda4f79c0e323b3827b419ebaf40910161019b565b610227610262565b6001600160a01b03811661025657604051631e4fbdf760e01b8152600060048201526024015b60405180910390fd5b61025f8161028f565b50565b6000546001600160a01b031633146101b95760405163118cdaa760e01b815233600482015260240161024d565b600080546001600160a01b038381166001600160a01b0319831681178455604051919092169283917f8be0079c531659141344cd1fd0a4f28419497f9722a3daafe3b4186f6b6457e09190a35050565b80356001600160a01b03811681146102f657600080fd5b919050565b60006020828403121561030d57600080fd5b610316826102df565b9392505050565b6000806040838503121561033057600080fd5b610339836102df565b91506020830135801515811461034e57600080fd5b80915050925092905056fea26469706673582212206f0c098fbf25f99675f8fcac47272efbfc6fc68fc2739212e80286687ad75bbb64736f6c63430008170033","linkReferences":{}},"methodIdentifiers":{"isTrustedExecutor(address)":"672657ca","isTrustedImplementation(address)":"1506fd4d","owner()":"8da5cb5b","renounceOwnership()":"715018a6","setTrustedExecutor(address,bool)":"9472c8c9","setTrustedImplementation(address,bool)":"483c088e","transferOwnership(address)":"f2fde38b"},"storageLayout":{"storage":[{"astId":49595,"contract":"src/AccountGuardian.sol:AccountGuardian","label":"_owner","offset":0,"slot":"0","type":"t_address"},{"astId":62611,"contract":"src/AccountGuardian.sol:AccountGuardian","label":"isTrustedImplementation","offset":0,"slot":"1","type":"t_mapping(t_address,t_bool)"},{"astId":62616,"contract":"src/AccountGuardian.sol:AccountGuardian","label":"isTrustedExecutor","offset":0,"slot":"2","type":"t_mapping(t_address,t_bool)"}],"types":{"t_address":{"encoding":"inplace","label":"address","numberOfBytes":"20"},"t_bool":{"encoding":"inplace","label":"bool","numberOfBytes":"1"},"t_mapping(t_address,t_bool)":{"encoding":"mapping","key":"t_address","label":"mapping(address => bool)","numberOfBytes":"32","value":"t_bool"}}},"id":106}