{"abi":[{"type":"function","name":"account","inputs":[{"name":"implementation","type":"address","internalType":"address"},{"name":"salt","type":"bytes32","internalType":"bytes32"},{"name":"chainId","type":"uint256","internalType":"uint256"},{"name":"tokenContract","type":"address","internalType":"address"},{"name":"tokenId","type":"uint256","internalType":"uint256"}],"outputs":[{"name":"","type":"address","internalType":"address"}],"stateMutability":"view"},{"type":"function","name":"createAccount","inputs":[{"name":"implementation","type":"address","internalType":"address"},{"name":"salt","type":"bytes32","internalType":"bytes32"},{"name":"chainId","type":"uint256","internalType":"uint256"},{"name":"tokenContract","type":"address","internalType":"address"},{"name":"tokenId","type":"uint256","internalType":"uint256"}],"outputs":[{"name":"","type":"address","internalType":"address"}],"stateMutability":"nonpayable"},{"type":"event","name":"ERC6551AccountCreated","inputs":[{"name":"account","type":"address","indexed":false,"internalType":"address"},{"name":"implementation","type":"address","indexed":true,"internalType":"address"},{"name":"salt","type":"bytes32","indexed":false,"internalType":"bytes32"},{"name":"chainId","type":"uint256","indexed":false,"internalType":"uint256"},{"name":"tokenContract","type":"address","indexed":true,"internalType":"address"},{"name":"tokenId","type":"uint256","indexed":true,"internalType":"uint256"}],"anonymous":false},{"type":"error","name":"AccountCreationFailed","inputs":[]}],"bytecode":{"object":"0x608060405234801561001057600080fd5b5061023b806100206000396000f3fe608060405234801561001057600080fd5b50600436106100365760003560e01c8063246a00211461003b5780638a54c52f1461006a575b600080fd5b61004e6100493660046101b7565b61007d565b6040516001600160a01b03909116815260200160405180910390f35b61004e6100783660046101b7565b6100e1565b600060806024608c376e5af43d82803e903d91602b57fd5bf3606c5285605d52733d60ad80600a3d3981f3363d3d373d3d3d363d7360495260ff60005360b76055206035523060601b60015284601552605560002060601b60601c60005260206000f35b600060806024608c376e5af43d82803e903d91602b57fd5bf3606c5285605d52733d60ad80600a3d3981f3363d3d373d3d3d363d7360495260ff60005360b76055206035523060601b600152846015526055600020803b61018b578560b760556000f580610157576320188a596000526004601cfd5b80606c52508284887f79f19b3655ee38b1ce526556b7731a20c8f218fbda4a3990b6cc4172fdf887226060606ca46020606cf35b8060601b60601c60005260206000f35b80356001600160a01b03811681146101b257600080fd5b919050565b600080600080600060a086880312156101cf57600080fd5b6101d88661019b565b945060208601359350604086013592506101f46060870161019b565b94979396509194608001359291505056fea2646970667358221220bd75cbd4578c8f2cf59b49540c64f26a9c95a366ef51bf00e741b8d49a1bd48e64736f6c63430008170033","linkReferences":{}},"methodIdentifiers":{"account(address,bytes32,uint256,address,uint256)":"246a0021","createAccount(address,bytes32,uint256,address,uint256)":"8a54c52f"},"storageLayout":{"storage":[],"types":{}},"id":9}